S11301008EA07F206E86207EE1D17EE1AC7EE0E38E
S1130110863F8DF37F00A5BD010A812027F697A5B0
S11301202003BD010A811827E7812C2704810D26AD
S1130130F197A496A53936CE0042DFA89BA997A9CA
S1130140DEA8323937C608964049984049497900B3
S1130150417900405A26F033964039CE066E20038A
S11301608DA508A600810426F73908DF9E8DECDEF4
S11301709E20F0CE00426F00088C008226F88DDBB2
S1130180BD016A8DD6CE07D6BD016BBD01147F00BB
S11301909B81422707814D26EC73009BCE06858DFB
S11301A0CA8DB8860F978A86019782BD01448480E0
S11301B01686F09789BD0144843FBD047B26EC96E6
S11301C0824C810626E3CE0042A60084F0A70008F4
S11301D08C008226F486019782BD015BBD050D0863
S11301E0BD016BCE0758BD016BBD011481582605B6
S11301F0BD05AE20E45F81562706814826DBC68014
S113020037BD0528C60FD78933BD047B270BCE071E
S11302109FBD016BBD05AE20C096824C810626B7FA
S1130220BD05AECE06AABD016BBD0114814E279655
S1130230815926EFCE06C2BD016BBD0114814E2744
S11302404E815926EFBD015BCE0697BD016B86F04A
S1130250978ABD052816BD0136A6002B0984F02710
S113026022CE07C1202636847FA700CE06DBBD013F
S11302706B328470474747BD051008BD0163BD0557
S113028065200C8670AA00A700CE06E5BD016B4F61
S113029097A3978E978F97A2BD0136E600C40F27C8
S11302A007C50826037E038EC6FFBD033ED794C64A
S11302B001BD033ED793C608BD034FD796C6F8BD0C
S11302C0034FD795CE0000DF97DF99D69B271CC636
S11302D002BD033ED797C6FEBD033ED798C610BDE8
S11302E0034FD79AC6F0BD034FD799C603969527F7
S11302F00881052204919927419696270C810522AD
S113030008919A27359195276696932708810522A7
S113031004919727259694270C8105220891982704
S1130320199193274ACE00935FA6002705810522E1
S1130330015C088C009726F1201FC6042031BD04FF
S1130340F126119691BD0136E600C40F96A239BD7F
S113035004FF27EFC60896A23917C6024D26105A85
S113036086079495949694939494810726015FD17B
S11303708E221226197C00A3BD0144843F90A3223F
S1130380F7260B20037F00A396A2978FD78E96A201
S11303904C813F22037E0296BD015BCE06EDBD017A
S11303A06B968FBD0136DF8784384444448B41BD4E
S11303B00107862CBD0107968F84078B31BD010789
S11303C0860F978ACE076DBD016BBD011481582736
S11303D0328148271B814D26EBDE87A6008508263F
S11303E0078A07A7007E0245CE074BBD016B20D4C8
S11303F096A4812C2706CE077BBD016BBD01148119
S1130400582605BD05AE2090979CDE87A60084077C
S113041027D6810522D21648BD0510A6009792A6BC
S11304200108DFA6919C26C0DE87A60084F7A700FA
S1130430D79CD692CE0042A600088C00822709845D
S11304400F919C26F25A20EF5D262ACE0787BD0124
S11304506BDEA6BD0163CE078FBD016BCE0042A645
S113046000840F919C2608A60084F08A06A7000841
S11304708C008226EABD05657E0245BD0136978360
S1130480A6009489264FD784BD050DE600D7925A5D
S1130490D78B9683D6842A3EC601BD04F1263696B0
S11304A091BD0136A6009489262B96917A008B265D
S11304B0E7D7909683BD0136D682CA087D00892A83
S11304C0045858585837EA00E700339B90BD01366A
S11304D07A009226F039C608BD04FF26F89691BD2D
S11304E00136A600948926ED96917A008B26E920A0
S11304F0C03684F8979D321B979184F8919D3936C4
S113050084C7979D321B979184C7919D39968248E1
S1130510840FCE0625DFA0369BA197A196A0890063
S113052097A032DEA0EE0039CE06F8BD016BBD0106
S1130530148158272380412BEF810722EB48484838
S11305401696A4812C2616BD01148158270A8031E1
S11305502B0B810722071B39BD05AE20CBCE07AC80
S1130560BD016B20E2CE00427F00957F0096A6007D
S11305702A029795850827029796088C008226EE12
S1130580969527059696271A39CE070CBD016B0858
S11305903131BD016BBD0114814E27037E01737E91
S11305A0010DCE072BBD016BCE071620E339BD012B
S11305B05BCE0732BD016BBD015BCE004286419725
S11305C08CBD0107BD01058608978DBD0105968A7E
S11305D02B20862BE600C40FC1072711862EC108E5
S11305E0230BDF855817BD0510A601DE85BD010765
S11305F02020862EE6002B17C4F02713862AC1700C
S1130600270D17DF85444444BD0510A601DE85BDD2
S11306100107087A008D26B3DF85BD015BDE859670
S11306208C4C814926993906310643064F065806F3
S11306306305C1C9D2C3D2C1C6D4A0C3C1D2D2C971
S1130640C5D20404C2C1D4D4CCC5D3C8C9D0040310
S1130650C3D2D5D3C9C5D20403D3D5C2CDC1D2C95F
S1130660CEC50402C4C5D3D4D2CFD9C5D2040D0A91
S11306700000000004C2C1D4D4CCC5D3C8C9D0A0E2
S1130680B6B8B0B004D3C5D4A0D5D0A0D9CFD5D2F4
S1130690A0C6CCC5C5D404C6C9D2C5A0D9CFD5D2AD
S11306A0A0CDC9D3D3C9CCC5A104C1D0D0D2CFD693
S11306B0C5A0D4C8C5A0CDC1D0A0A8D9ADCEA9BF6E
S11306C0A004D7C1CED4A0D4CFA0C7CFA0C6C9D2CE
S11306D0D3D4A0A8D9ADCEA9BFA0040707C8C9D454
S11306E0A0CFCEA004CDC9D3D3C5C4A104C9A0C68C
S11306F0C9D2C5A0C1D4A004A0C3CFCFD2C4C9CE8F
S1130700C1D4C5D3A8D2ACC3A9BFA004D9CFD5A0A6
S1130710D7C9CEA10704D7C1CED4A0D4CFA0D0CC02
S1130720C1D9A0C1C7C1C9CEBFA004C9A0D7C9CE71
S1130730A104000000000000A0A0A0B1A0B2A0B3DA
S1130740A0B4A0B5A0B6A0B7A0B804CECFA0C3C82B
S1130750C5C1D4C9CEC7A104A0CFD2C9C5CED4C106
S1130760D4C9CFCEA0A8C8ADD6A9BFA004C8C9D447
S1130770A0CFD2A0CDC9D3D3BFA004D3C8C9D0A021
S1130780D4D9D0C5BFA0040707D9CFD5D2A004A01F
S1130790C8C1D3A0C2C5C5CEA0D3D5CECBA104C9F0
S11307A0D4A0D7CFCEA7D4A0C6C9D404A0C3CFCCDD
S11307B0D5CDCEA0C3CFCFD2C4C9CEC1D4C5BFA0DE
S11307C004C1CCD2C5C1C4D9A0C6C9D2C5C4A0D4A1
S11307D0C8C5D2C5A104D2C1D4C9CEC7A0A8C2ADD0
S10807E0CDA9BFA00437
S503006F8D
S9030100FB
